:100000000C94910D0C948E2E0C94BF2E0C94F02E0B
:100010000C94212F0C94522F0C94832F0C94B42FFA
:100020000C94E52F0C94BE0D0C94BE0D0C94BE0DDB
:100030000C94BE0D0C94342B0C94BE0D0C94BE0D80
:100040000C94BE0D0C94DF5A0C94BE0D0C94BE0D96
:100050000C94BE0D0C94A6580C94A3570C94163017
:100060000C94BE0D0C9430590C945A590C94BE0D3E
:100070000C94BE0D0C94BE0D0C94BE0D0C94BE0DD4
:100080000C94BE0D0C94BE0D0C94BE0D0C94BE0DC4
:100090000C94BE0D0C94BE0D0C94BE0D0C94BE0DB4
:1000A0000C94BE0D0C94BE0D0C94BE0D0C94BE0DA4
:1000B0000C94BE0D0C94BE0D0C94BE0D0C94BE0D94
:1000C0000C94BE0D0C94BE0D0C94BE0D0C94BE0D84
:1000D0000C94BE0D0C94BE0D0C94BE0D0C94BE0D74
:1000E0000C94BE0D084AD73B3BCE016E84BCBFFDCD
:1000F000C12F3D6C74319ABD56833DDA3D00C77FF8
:1001000011BED9E4BB4C3E916BAAAABE0000008090
:100110003F05A84CCDB2D44EB93836A9020C50B91F
:10012000918688083CA6AAAA2ABE000000803F004B
:10013000000100360037002600020003003C003DAD
:100140000038000F000E002E0030003E0013001299
:100150000006000C000A00080004001A001C001829
:1001600000240022001E001B001D0029000D000EAF
:10017000003500536574204D6963726F7374657048
:1001800070696E67004649524D574152455F4E4176
:100190004D453A52657065746965725F302E39302D
:1001A00062657461204649524D574152455F555230
:1001B0004C3A68747470733A2F2F6769746875626B
:1001C0002E636F6D2F72657065746965722F52654D
:1001D0007065746965722D4669726D776172652FFD
:1001E0002050524F544F434F4C5F56455253494F46
:1001F0004E3A312E30204D414348494E455F5459C7
:1002000050453A44656C74612045585452554445F4
:10021000525F434F554E543A33205245504554494E
:1002200045525F50524F544F434F4C3A3200446551
:100230006275673A006F6B000D0A004E414E00492F
:100240004E46004572726F723A00496E666F3A0010
:100250005761726E696E673A00526573656E643AF3
:10026000004563686F3A006F6B200057726F6E67CE
:1002700020636865636B73756D004D697373696E98
:100280006720636865636B73756D00446F6E6520EE
:100290007072696E74696E672066696C65002058BB
:1002A00000205900205A002045002046002053001D
:1002B000205000204900204A002052005344207260
:1002C000656164206572726F72004572726F723A76
:1002D0006578706563746564206C696E65200020C4
:1002E000676F742000736B69702000424C4B2000D4
:1002F000737461727400506F776572557000457841
:100300007465726E616C2052657365740042726F21
:10031000776E206F75742052657365740057617431
:100320006368646F6720526573657400536F667409
:100330007761726520526573657400556E6B6E6FE0
:10034000776E20636F6D6D616E643A00467265650D
:100350002052414D3A00583A0020583A0020593A6C
:1003600000205A3A0020453A00543A0020423A0010
:1003700020403A002054002040003A002F005370E3
:100380006565644D756C7469706C793A00466C6F84
:10039000774D756C7469706C793A0046616E737054
:1003A0006565643A005072696E7465642066696CB4
:1003B000616D656E743A005072696E74696E672083
:1003C00074696D653A006D200020646179732000C6
:1003D00020686F7572732000206D696E00496E761B
:1003E000616C696420617263002C002000593A003E
:1003F0005A3A0045303A0045313A004D53312C4DC0
:1004000053322050696E7300536574206F75747099
:100410007574200020746F20004820004C20007864
:100420005F6D696E3A00785F6D61783A00795F6D53
:10043000696E3A00795F6D61783A007A5F6D696E36
:100440003A007A5F6D61783A004A65726B3A002033
:100450005A4A65726B3A00206C696E65617220734E
:10046000746570733A0020717561647261746963B8
:100470002073746570733A002C2073706565643D59
:10048000006C696E656172204C3A00207175616480
:100490007261746963204B3A004D656173757265D2
:1004A0006D656E742072657365742E004D656173A1
:1004B0007572652F64656C74612028537465707360
:1004C00029203D004D6561737572652F64656C74FC
:1004D00061203D004D65617375726564206F7269BE
:1004E00067696E207365742E204D65617375726542
:1004F0006D656E742072657365742E004F72696746
:10050000696E206D6561737572656D656E742063CB
:10051000616E6E6F74206265207365742E202055A5
:100520007365206F6E6C79205A2D43617274657308
:1005300069616E20287374726169676874207570D0
:1005400020616E6420646F776E29206D6F76656D13
:10055000656E747320616E642074727920616761C6
:10056000696E2E00454550524F4D20757064617480
:10057000656400496E76616C69642064656C7461C1
:1005800020636F6F7264696E617465202D206D6FDA
:1005900076652069676E6F726564004C6576656C80
:1005A000696E672063616C633A00546F77657220EF
:1005B000313A00546F77657220323A00546F776594
:1005C0007220333A00416C7068612041283231302A
:1005D000293A00416C706861204228333330293A4F
:1005E00000416C7068612043283930293A00446525
:1005F0006C74612052616469757320412830293A16
:100600000044656C746120526164697573204228EE
:1006100030293A0044656C746120526164697573D5
:1006200020432830293A004E6F206D6F766520698F
:100630006E2064656C7461207365676D656E7420EF
:1006400077697468203E2031207365676D656E742C
:100650002E20546869732073686F756C64206E6512
:100660007665722068617070656E20616E64206DC1
:10067000617920636175736520612070726F626CAF
:10068000656D210054617267657445787472005419
:1006900061726765744265643A005049442041754F
:1006A000746F74756E652073746172740020626972
:1006B00061733A200020643A2000206D696E3A2070
:1006C00000206D61783A2000204B753A20002054BC
:1006D000753A200020436C6173736963205049446C
:1006E00000204B703A2000204B693A2000204B64D8
:1006F0003A2000504944204175746F74756E65202E
:100700006661696C6564212054656D706572617401
:1007100075726520746F20686967680050494420CD
:100720004175746F74756E65206661696C656421CE
:100730002074696D656F757400504944204175746B
:100740006F74756E652066696E69736865642021D3
:1007500020506C61636520746865204B702C204BC1
:100760006920616E64204B6420636F6E7374616EE8
:10077000747320696E2074686520436F6E666967C4
:1007800075726174696F6E2E68206F7220454550D6
:10079000524F4D004D54454D503A006865617465A7
:1007A0006420626564006578747275646572200007
:1007B0003A2074656D702073656E736F7220646586
:1007C00066656374003A20776F726B696E670050DC
:1007D00072696E7465722073657420696E746F201F
:1007E0006472792072756E206D6F646520756E7409
:1007F000696C2072657374617274210049443A0017
:100800007653746172742F456E643A006163636558
:100810006C2F646563656C2073746570733A007344
:10082000742E2F656E642073706565643A00466CA3
:100830006167733A006A6F696E466C6167733A006C
:1008400044656C7461004469723A0066756C6C535F
:10085000706565643A00764D61783A00416363657E
:100860006C65726174696F6E3A00416363656C65B3
:10087000726174696F6E205072696D3A0052656DD5
:1008800061696E696E672073746570733A006164A4
:1008900076616E636546756C6C3A00616476616E74
:1008A0006365526174653A004C696D6974496E7490
:1008B000657276616C3A004D6F7665206469737479
:1008C000616E6365206F6E207468652058595A20E8
:1008D00073706163653A00436F6D6D616E6465644A
:1008E0002066656564726174653A00436F6E737467
:1008F000616E742066756C6C207370656564206D24
:100900006F76652074696D653A004D656173757227
:10091000652F64656C7461203D004D65617375726F
:10092000656D656E742072657365742E004D65612A
:100930007375726564206F726967696E2073657480
:100940002E204D6561737572656D656E74207265DC
:100950007365742E005A2D70726F62653A005A2DBD
:1009600070726F6265206176657261676520686587
:10097000696768743A005265736574205A20686527
:1009800069676874005A2D70726F626520737461B4
:1009900074653A000000486974207A2D70726F62A5
:1009A00065004175746F6C6576656C206D6174725D
:1009B0006978207265736574004175746F6C657633
:1009C000656C696E6720656E61626C656400417577
:1009D000746F6C6576656C696E67206469736162BB
:1009E0006C6564005A2D70726F6265206661696C77
:1009F0006564005A2D70726F6265206D61783A00EF
:100A00005072696E746572206865696768743A002F
:100A100077616974005A2D70726F6265206865692C
:100A2000676874005A2D70726F6265206F66667316
:100A300065742078005A2D70726F6265206F66664B
:100A40007365742079005A2D70726F62652073701F
:100A5000656564005A2D70726F626520782D792D5E
:100A60007370656564005A2D70726F62652058312D
:100A7000005A2D70726F6265205931005A2D7072C4
:100A80006F6265205832005A2D70726F626520596E
:100A900032005A2D70726F6265205833005A2D70E3
:100AA000726F6265205933004175746F6C657665AD
:100AB0006C206163746976652028312F30290043EA
:100AC0006F6E66696775726174696F6E2073746F9B
:100AD00072656420746F20454550524F4D2E00437F
:100AE0006F6E66696775726174696F6E206C6F6195
:100AF0006465642066726F6D20454550524F4D2EDF
:100B000000436F6E66696775726174696F6E2072FB
:100B10006573657420746F2064656661756C7473A9
:100B20002E0050726F746F636F6C207665727369FC
:100B30006F6E206368616E6765642C2075706772E4
:100B40006164696E6700457874722E004550523AB0
:100B50003020004550523A3120004550523A322060
:100B6000004550523A3320004261756472617465E9
:100B70000046696C616D656E74207072696E746593
:100B800064205B6D5D005072696E746572206163F4
:100B900074697665205B735D004D61782E20696E07
:100BA0006163746976652074696D65205B6D732C73
:100BB000303D6F66665D0053746F702073746570AE
:100BC00070657220616674657220696E6163746914
:100BD00076697479205B6D732C303D6F66665D00BD
:100BE0005820686F6D6520706F73205B6D6D5D00C0
:100BF0005920686F6D6520706F73205B6D6D5D00AF
:100C00005A20686F6D6520706F73205B6D6D5D009D
:100C100058206D6178206C656E677468205B6D6D1F
:100C20005D0059206D6178206C656E677468205B8B
:100C30006D6D5D005A206D6178206C656E6774681B
:100C4000205B6D6D5D0058206261636B6C61736841
:100C5000205B6D6D5D0059206261636B6C61736830
:100C6000205B6D6D5D005A206261636B6C6173681F
:100C7000205B6D6D5D004D61782E206A65726B2082
:100C80005B6D6D2F735D00416363656C65726174AC
:100C9000696F6E205B6D6D2F735E325D0054726103
:100CA00076656C20616363656C65726174696F6EF3
:100CB000205B6D6D2F735E325D0053746570732021
:100CC000706572206D6D004D61782E2066656564DB
:100CD00072617465205B6D6D2F735D00486F6D6987
:100CE0006E67206665656472617465205B6D6D2F4B
:100CF000735D00446961676F6E616C20726F642080
:100D00006C656E677468205B6D6D5D00486F72691D
:100D10007A6F6E74616C20726164697573205B6DAB
:100D20006D5D005365676D656E74732F7320666F1C
:100D300072207072696E74696E67005365676D65C5
:100D40006E74732F7320666F722074726176656C97
:100D500000546F776572205820656E6473746F70ED
:100D6000206F6666736574205B73746570735D00D5
:100D7000546F776572205920656E6473746F7020AC
:100D80006F6666736574205B73746570735D005481
:100D90006F776572205A20656E6473746F70206F70
:100DA0006666736574205B73746570735D004F5085
:100DB00053206F7065726174696F6E206D6F64652A
:100DC000205B303D4F66662C313D436C6173736927
:100DD000632C323D466173745D004F5053206D6F3C
:100DE000766520616674657220782520726574725C
:100DF000616374205B255D004F5053206D696E2E3A
:100E00002064697374616E636520666F7220666921
:100E10006C2E2072657472616374696F6E205B6DF5
:100E20006D5D004F50532072657472616374696F19
:100E30006E206C656E677468205B6D6D5D004F5051
:100E4000532072657472616374696F6E20626163AE
:100E50006B6C617368205B6D6D5D0042656420485A
:100E6000656174204D616E61676572205B302D3362
:100E70005D004265642050494420647269766520B3
:100E80006D6178004265642050494420647269763F
:100E900065206D696E004265642050494420502DE4
:100EA0006761696E004265642050494420492D679E
:100EB00061696E004265642050494420442D676199
:100EC000696E0042656420504944206D6178207647
:100ED000616C7565205B302D3235355D007374654E
:100EE000707320706572206D6D006D61782E2066C4
:100EF00065656472617465205B6D6D2F735D007351
:100F000074617274206665656472617465205B6DDE
:100F10006D2F735D00616363656C65726174696FE9
:100F20006E205B6D6D2F735E325D006865617420AD
:100F30006D616E61676572205B302D335D005049D5
:100F400044206472697665206D61780050494420C0
:100F50006472697665206D696E0050494420502D99
:100F60006761696E2F646561642D74696D650050F9
:100F7000494420492D6761696E0050494420442D41
:100F80006761696E00504944206D61782076616C1C
:100F90007565205B302D3235355D00582D6F6666E6
:100FA000736574205B73746570735D00592D6F6693
:100FB00066736574205B73746570735D0074656D32
:100FC000702E2073746162696C697A652074696D32
:100FD00065205B735D0074656D702E20666F7220F6
:100FE00072657472616374696F6E207768656E20D4
:100FF00068656174696E67205B435D006469737442
:10100000616E636520746F20726574726163742011
:101010007768656E2068656174696E67205B6D6DC9
:101020005D00657874727564657220636F6F6C65BE
:1010300072207370656564205B302D3235355D003C
:10104000616476616E6365204B205B303D6F666640
:101050005D00616476616E6365204C205B303D6F9E
:1010600066665D00534420436172642072656D6F53
:10107000766564005344204361726420696E736531
:101080007274656400534420696E697420666169F6
:101090006C006572726F722077726974696E672076
:1010A000746F2066696C6500426567696E206669C9
:1010B0006C65206C69737400456E642066696C65AC
:1010C000206C6973740046696C65206F70656E658D
:1010D000643A002053697A653A0046696C6520736A
:1010E000656C65637465640066696C652E6F706518
:1010F0006E206661696C6564005344207072696E8D
:1011000074696E67206279746520004E6F74205395
:1011100044207072696E74696E67006F70656E202E
:101120006661696C65642C2046696C653A200057DD
:10113000726974696E6720746F2066696C653A2005
:1011400000446F6E6520736176696E672066696C16
:10115000652E0046696C652064656C657465640085
:1011600044656C6574696F6E206661696C656400C6
:101170004469726563746F72792063726561746526
:1011800064004372656174696F6E206661696C65A5
:1011900064005344206572726F72436F64653A0055
:1011A0000200002100240027002A002D0030003317
:1011B0000001010000040107010A010000220025CE
:1011C0000028002B002E0031003400020100000531
:1011D0000108010B01000020002300260029002C3B
:1011E000002F003200000100000301060109010583
:1011F000050505070508080808020202020A0A0890
:1012000008040404040101010101010101030303B5
:101210000303030303040707070C0C0C0C0C0C0C52
:101220000C0202020206060606060606060B0B0B59
:101230000B0B0B0B0B010210202008081020401094
:10124000204080020102010804020101020408108A
:1012500020408080402010080402018004020180A8
:1012600040201008040201080402010102040810D1
:1012700020408001020408102040800000090A027A
:10128000080B0C0D0706030401000000000000001D
:10129000000000000000000000000000000000004E
:1012A0000000000000000011100F0000000000000E
:1012B000000000000000000000000000000000002E
:1012C000000D0F0C0E1C151C141C00002243141FD3
:1012D0001F1C138C13E0135014A014000000001006
:1012E000159815A416F41670174D3131372045782E
:1012F000747275646572203100004D3131372045BC
:1013000078747275646572203200004D3131372077
:101310004578747275646572203300000000A00F78
:101320005C006009690010097900C0088C00700831
:10133000A2002008BD00D007DE00800705013007AD
:101340003401E0066D019006B20140060702F00587
:101350006D02A005E80250057B0300052B04B004D4
:10136000F8046004EB06C003350920037F0B8002FC
:10137000650DE001B00E40011D0FF000480FC800E0
:101380006C0FA000ED0F60FFFE0F48FE0400801AF6
:10139000D8009808AC012007800250065403C80505
:1013A00028045805FC040005D005B004A406680410
:1013B000780728044C08E8032009B003F4097003F7
:1013C000C80A38039C0BF802700CB002440D680286
:1013D000180E0802EC0E8801C00F8800F00F000004
:1013E0000400001B54006009640010097400C00868
:1013F000840070089C002008B800D007D80080073F
:10140000000130072C01E00668019006AC0140069F
:101410000002F0056802A005E00250057403000513
:101420002404B004F0046004DC051004E406C003E6
:101430000408700330092003780B8002600DE0017E
:10144000A80E4001680FA000C00F0000E80F60FF69
:101450000400700DD8004804AC0158038002D80283
:101460005403800228043802FC040002D005C8019D
:10147000A4069801780770014C084801200918015A
:10148000F409F000C80AC8009C0BA000700C7000A2
:10149000440D3800180E0000EC0EA8FFC00FE8FE47
:1014A0000400001B54006009640010097400C008A7
:1014B000840070089C002008B800D007D80080077E
:1014C000000130072C01E00668019006AC014006DF
:1014D0000002F0056802A005E00250057403000553
:1014E0002404B004F0046004DC051004E406C00326
:1014F0000408700330092003780B8002600DE001BE
:10150000A80E4001680FA000C00F0000E80F60FFA8
:101510000000401F450060094F0010095C00C00832
:101520006B0070087D0020089200D007AC00800797
:10153000CC003007DE00E006230190065E01400685
:10154000A601F005FF01A0056D025005F30200059C
:101550009603B0045A046004400510044806C00312
:101560006E077003A8082003EB09D002230B80024A
:10157000410C3002390DE001040E9001A20E400131
:10158000170FF000690FA000A20F5000C60F000057
:10159000DD0FB0FFEB0F60FF0400681D4C00500B27
:1015A00094005809DC0050082401A8076C012807A2
:1015B000B401C006FC017006440228068C02F00546
:1015C000D402B8051C03880564035805AC03300534
:1015D000F40310053C04E8048404C804CC04A80403
:1015E000140590045C057004A4055804EC05380447
:1015F000340620047C060804C406F0030C07D80354
:101600005407C8039C07B003E40798032C08800321
:1016100074087003BC085803040948034C093003DC
:1016200094091803DC090803240AF0026C0AE0029A
:10163000B40AC802FC0AB002440BA0028C0B880258
:10164000D40B70021C0C5802640C4002AC0C280233
:10165000F40C10023C0DF001840DD801CC0DB80142
:10166000140E98015C0E7001A40E4801EC0E1801D6
:10167000340FD8007C0F8800C40F0800FC0F000056
:10168000000000000000000000000000000000005A
:10169000000000000000000000000000000000004A
:1016A0000000000004000016D800C006AC01780558
:1016B0008002C004540348042804E803FC0498038F
:1016C000D0055003A40618037807D8024C08A802D6
:1016D00020097002F4093802C80A08029C0BD001E4
:1016E000700C9001440D5001180EF800EC0E8800AB
:1016F000C00F00000400401D900060091C01B007ED
:10170000A801D00634023806C002C8054C0368059B
:10171000D80318056404D804F00498047C05600418
:1017200008063004940600042007D003AC07A80381
:1017300038088003C408580350093003DC09080343
:10174000680AE002F40AB802800B88020C0C6002FE
:10175000980C3002240DF801B00DC0013C0E800140
:10176000C80E3001540FB800B40F2800E00F00007D
:101770000400081D900058091C01B007A801C80604
:1017800034023006C002C0054C036805D8031805B2
:101790006404D004F00498047C0560040806300456
:1017A000940600042007D003AC07A8033808800380
:1017B000C408580350093003DC090803680AD8023A
:1017C000F40AB002800B88020C0C6002980C300204
:1017D000240DF801B00DC0013C0E8001C80E30018F
:1017E000540FB800B40F2800E00F00004572726F6C
:1017F000723A42696E61727920636D642077726F0C
:101800006E6720636865636B73756D2E0000002042
:10181000A190D00A8B48E8A0868545041724F403DC
:10182000D950C38EB1C2A23D96828B3582127AE323
:1018300072816CCB66A861015DC758EB5461512081
:101840004E1E4B5648C14559431A41013F093D2F91
:101850003B7139CD374036C93465331432D430A3A7
:101860002F802E6B2D632C672B752A8E29B028DCD8
:101870002710274B268F25D9242B248223E02243AF
:1018800022AC211A218D200420801F001F841E0CF1
:101890001E971D261DB81C4E1CE61B821B201BC15B
:1018A0001A641A0A1AB2195D190A19B9186A181CA9
:1018B00018D11788174017FA16B51673163116F196
:1018C00015B31576153A150015C7148F1458142240
:1018D00014EE13BA13881356132513F612C7129970
:1018E000126C1240121512EB11C1119811701148AF
:1018F000112111FB10D610B1108D10691046102463
:10190000100210E10FC00FA00F800F610F420F23D4
:101910000F060FE80ECB0EAF0E930E770E5C0E4146
:101920000E270E0D0EF30DDA0DC10DA80D900D78DA
:101930000D600D490D320D1B0D050DEF0CD90CC3BB
:101940000CAE0C990C850C700C5C0C480C350C2101
:101950000C0E0CFB0BE80BD60BC40BB20BA00B8EC2
:101960000B7D0B6B0B5A0B4A0B390B290B180B0811
:101970000BF80AE90AD90ACA0ABB0AAC0A9D0A8E00
:101980000A800A710A630A550A470A390A2C0A1E94
:101990000A110A040AF709EA09DD09D009C409B7DE
:1019A00009AB099F09920987097B096F09630958E7
:1019B000094C09410936092B09200915090A0900B2
:1019C00009F508EB08E008D608CC08C208B808AE4C
:1019D00008A4089A08900887087D0874086B0861B5
:1019E0000858084F0846083D0834082C0823081AF0
:1019F00008120809080108F807F007E807E007D807
:101A000007D007C807C007B807B007A807A1070095
:101A100000420FA1071605D0030D038B022E02E82A
:101A200001B2018601630145012C0117010401F493
:101A3000007C3C3E5E2B3D3F2F5B5D3B2C2A225CB5
:101A4000004E6F206572726F7220666F756E642E25
:101A50000043616E2774206F70656E20726F6F7423
:101A6000206469726563746F72792E00496E7661C5
:101A70006C696420666F726D61742C207265666F8C
:101A8000726D61742053442E004E6F206361726446
:101A90002C2077726F6E6720636869702073656CA5
:101AA0006563742070696E2C206F7220535049203A
:101AB00070726F626C656D3F0043616E27742061C8
:101AC000636365737320534420636172642E204402
:101AD0006F206E6F74207265666F726D61742E0078
:101AE000494E46494E4954594E414ECDCCCC3D0A03
:101AF000D7233C17B7D13877CC2B329595E6241FE6
:101B0000B14F0A000020410000C84200401C46209E
:101B1000BCBE4CCA1B0E5AAEC59D74009B5ABD97E5
:101B2000B69711241FBECFEFD1E2DEBFCDBF00E0DC
:101B30000CBF14E0A0E0B2E0E0E2F7E601E00BBF8A
:101B400002C007900D92A231B107D9F71BBE14E273
:101B5000A2E1B4E001C01D92A331B107E1F71BE19E
:101B6000C0E2DBE104C02297FE010E943DB3CC310C
:101B7000D107C9F70E94B12A0C9483B30C940000DA
:101B8000CF93DF93BC018230910510F462E070E0E6
:101B9000A0910F24B0911024ED01E0E0F0E040E0CE
:101BA00050E021C0888199818617970769F48A815E
:101BB0009B81309719F09383828304C09093102403
:101BC00080930F24FE0134C06817790738F441155B
:101BD000510519F08417950708F4AC01FE018A81BC
:101BE0009B819C01E9012097E9F641155105A9F176
:101BF000CA01861B970B049708F4BA01E0E0F0E0F5
:101C00002AC08D919C91119784179507F9F4641758
:101C1000750781F412968D919C911397309719F066
:101C20009383828304C09093102480930F24FD013A
:101C300032964CC0CA01861B970BFD01E80FF91FB5
:101C40006193719302978D939C9340C0FD018281B3
:101C500093819C01D9011097A1F680910D24909158
:101C60000E24892B41F480910202909103029093FB
:101C70000E2480930D2440910402509105024115D9
:101C8000510541F44DB75EB7809100029091010279
:101C9000481B590B20910D2430910E24CA01821B40
:101CA000930B8617970780F0AB014E5F5F4F841749
:101CB000950750F0420F531F50930E2440930D246C
:101CC000F9016193719302C0E0E0F0E0CF01DF9190
:101CD000CF910895CF93DF93009709F450C0EC01A2
:101CE00022971B821A82A0910F24B0911024109782
:101CF00009F140E050E0AC17BD0708F1BB83AA83AF
:101D0000FE0121913191E20FF31FAE17BF0779F465
:101D10008D919C911197280F391F2E5F3F4F39836A
:101D2000288312968D919C9113979B838A834115EA
:101D3000510571F4D0931024C0930F2420C0129643
:101D40008D919C911397AD01009711F0DC01D3CFD9
:101D5000FA01D383C28321913191E20FF31FCE1791
:101D6000DF0769F488819981280F391F2E5F3F4F63
:101D7000FA01318320838A819B8193838283DF915F
:101D8000CF910895A0E0B0E0E8ECFEE00C9452B3EF
:101D9000EC015B016115710519F0FB0191838083F2
:101DA000F9908F2D90E00E9441B3892BC9F7FDE295
:101DB000FF1621F4F990EE24E39405C02BE2F2160D
:101DC00009F4F990EE248E0101501040C80160EE34
:101DD0007AE143E050E00E945111892B01F58E0118
:101DE0000E5F1F4FC80163EE7AE145E050E00E94AC
:101DF0005111892B19F48E01095F1F4FA114B104F1
:101E000019F0F50111830083E0FC04C070E090E05C
:101E100080E814C070E090E080E86FEF08C1C8016E
:101E200068EE7AE143E050E00E945111892B69F499
:101E3000A114B10429F470E090E080EC6FE7F7C0E2
:101E40002296F501D183C083F6CF8824992440E0FF
:101E500050E060E070E0EF2DE053EA30A0F5F2E0F2
:101E6000EF2A8E2D90E09C0128703070E2FE06C0B3
:101E7000232B79F50894811C911C2BC0232B19F07E
:101E8000089481089108DB01CA0112E0880F991FAC
:101E9000AA1FBB1F1A95D1F7480F591F6A1F7B1F36
:101EA000440F551F661F771F4E0F511D611D711D79
:101EB000483929E9520729E9620729E1720748F000
:101EC00084E0E82A06C0EE3F31F4E3FC39C098E034
:101ED000E92AF990C0CFE53311F0E53189F5299170
:101EE0002D3219F4E0E1EE2A05C02B3219F081E021
:101EF00090E003C0299182E090E0E22FE053EA30C5
:101F000018F0C81BD90B1CC020E030E0FCE02038E2
:101F10003F075CF4C901880F991F880F991F280F8C
:101F2000391F220F331F2E0F311DE991E053EA3084
:101F300068F3E4FE03C0309521953F4F820E931E57
:101F4000CE2CDD24E1FE07C0A114B10421F02197BD
:101F5000F501D183C083CB01BA010E94D2AF7B01CE
:101F60008C01F3E0CF22DD2423E0C216D10421F45A
:101F700017FB109517F9109557016801C801B701B3
:101F800020E030E040E050E00E9432AF882309F4C6
:101F90004AC097FE0DC02FEFE22E2AE1F22E909458
:101FA000819491089394C0E2D0E000E010E012C068
:101FB00097E1E92E9BE1F92EF6CFF70125913591B6
:101FC00045915491C601B5010E94E2B15B016C01DB
:101FD0008C1A9D0A8C169D0684F7D595C7950F5FC0
:101FE0001F4F0630110529F08CEF9FEFE80EF91E08
:101FF000F1CFC501D6017C018D018C2D880F8D2D6F
:10200000881F8F3F51F0C601B50120E030E040E06D
:1020100050E00E9432AF882331F482E290E0909346
:102020001224809311247E2D9F2D802F612F272F26
:10203000392F482F562FB901CA01CDB7DEB7ECE0D2
:102040000C946EB32F923F925F926F927F928F9219
:102050009F92AF92BF92CF92DF92EF92FF920F9337
:102060001F93CF93DF938C011B01EA01611571056A
:1020700019F0FB0191838083209749F0CE010297EC
:10208000839728F020E030E040E050E0F6C0F8010F
:10209000A1908F018A2D90E00E9441B3892BB9F75E
:1020A000FDE2AF1631F4F801A1908F01552453944D
:1020B00007C0FBE2AF1619F4F801A1908F01552477
:1020C000209719F0C031D105C1F4F0E3AF1679F4CF
:1020D000F8018081883711F0883549F4F801A18032
:1020E0000E5F1F4FF2E05F2AC0E1D0E006C02097EC
:1020F00021F480E3A816E9F427C0C830D10531F1F6
:10210000C930D10524F4C230D10531F50CC0CA3034
:10211000D10589F0C031D105F9F4C12CD12CE12CC5
:10212000B8E0FB2E28C0C12CD12CE12CA0E4FA2E63
:1021300022C0CAE0D0E0FCECCF2EFCECDF2EFCECA1
:10214000EF2EFCE0FF2E17C0C8E0D0E0C12CD12C50
:10215000E12CE0E1FE2E0FC09E01442737FD4095A3
:10216000542F60E070E080E090E80E94FEB2C90168
:10217000DA016C017D0120E030E040E050E060E0F9
:102180003E01882477FC8094982C70EDB72EBA0C11
:10219000E9E0EB1570F48A2D81548A3118F499EC3A
:1021A000B92E06C08A2D81568A3150F589EAB82E9B
:1021B000BA0C8B2D90E08C179D0714F56F3FE1F062
:1021C000C216D306E406F506B0F0CA01B901A401AF
:1021D00093010E94B8B29B01AC012B0D311D411D32
:1021E000511D2130F0E03F07F0E04F07F0E85F07B6
:1021F00010F461E001C06FEFF801A1908F01C5CF2D
:102200002114310481F0662331F001501040F101B6
:102210001183008308C051FE1AC002501040F10122
:102220001183008314C067FF12C050FC05C02FEF5C
:102230003FEF4FEF5FE704C020E030E040E050E8C0
:1022400082E290E0909312248093112416C050FEF5
:1022500008C050954095309521953F4F4F4F5F4FA7
:102260000CC057FF0AC082E290E090931224809342
:1022700011242FEF3FEF4FEF5FE7B901CA01DF9164
:10228000CF911F910F91FF90EF90DF90CF90BF9073
:10229000AF909F908F907F906F905F903F902F9026
:1022A0000895FB01DC014150504088F08D9181344C
:1022B0001CF08B350CF4805E659161341CF06B353D
:1022C0000CF4605E861B611171F3990B0895881BF5
:1022D000FCCFFB01DC0104C08D910190801921F439
:1022E00041505040C8F7881B990B0895FB01DC0151
:1022F00002C001900D9241505040D8F70895FC0162
:102300008191861721F08823D9F79927089531976D
:10231000CF010895F999FECF1FBA92BD81BD60BD6E
:102320000FB6F894FA9AF99A0FBEF999FECF1FBA30
:10233000019692BD81BD70BD0FB6F894FA9AF99AD4
:102340000FBE0895F999FECF92BD81BDF89A20B5D0
:10235000F999FECF019692BD81BDF89A90B5822F72
:102360000895DF93CF9300D00F92CDB7DEB79C01D5
:10237000FE013196AE014B5F5F4F09C0F999FECF68
:1023800032BD21BDF89A80B581932F5F3F4FE4178E
:10239000F507A1F729813A814B815C81B901CA0116
:1023A0000F900F900F900F90CF91DF91089588E4D8
:1023B00093E00E94B1110895089560910602709112
:1023C000070280910802909109026817790744F486
:1023D00070930902609308028CE493E00E941A292A
:1023E0000895BC01893191051CF469E170E005C0D4
:1023F000893C910514F068EC70E070934B21609378
:102400004A218DE893E00E941A290895EF92FF92E5
:102410000F931F93CF93DF93EC01893191051CF447
:10242000C9E1D0E006C081E0C53FD80714F0C4EF91
:10243000D1E0BE01882777FD8095982F0E94D4AF08
:102440007B018C016091482170914921882777FD9B
:102450008095982F0E94D4AF9B01AC01C801B701B1
:102460000E9439AF9B01AC016091442170914521DC
:1024700080914621909147210E94E2B160934421CE
:10248000709345218093462190934721D093492111
:10249000C09348218EE793E0BE010E941A29DF9184
:1024A000CF911F910F91FF90EF9008950E94A15B33
:1024B0009C0180910602909107022817390724F4A5
:1024C000309307022093060208950E944957089509
:1024D0006F927F928F929F92AF92BF92CF92DF9234
:1024E000EF92FF920F931F93E0908920F0908A2043
:1024F00000918B2010918C20A0908D20B0908E2088
:10250000C0908F20D0909020609091207090922069
:1025100080909320909094208091C311882329F477
:1025200020E030E040E85FE304C020E732E441E22D
:102530005DE3C801B7010E94E2B1AB01BC0186E5D1
:1025400093E022E00E94852A8091C311882329F418
:1025500020E030E040E85FE304C020E732E441E2FD
:102560005DE3C601B5010E94E2B1AB01BC018DE59E
:1025700093E022E00E94852A8091C311882329F4E8
:1025800020E030E040E85FE304C020E732E441E2CD
:102590005DE3C401B3010E94E2B1AB01BC0181E67D
:1025A00093E022E00E94852A2091852030918620A8
:1025B0004091872050918820A090D011B090D111E7
:1025C000C090D211D090D3118091C311882359F4B7
:1025D0000F2EF0E0EF2EF0E0FF2EF0E80F2FFFE3DC
:1025E0001F2FF02D0AC00F2EF0E7EF2EF2E4FF2E82
:1025F000F1E20F2FFDE31F2FF02DCA01B9010E9458
:10260000D4AFA60195010E94E2B1A80197010E94F2
:10261000E2B1AB01BC0185E693E022E00E949A2A78
:102620001F910F91FF90EF90DF90CF90BF90AF90F0
:102630009F908F907F906F9008950F931F930AE162
:1026400016E0C8016DE00E946A5AC8016AE00E9463
:102650006A5A1F910F9108956F927F928F929F9265
:10266000AF92BF92CF92DF92EF92FF920F931F93A0
:1026700060915E2170915F21809160219091612134
:102680002FE632E143E85AE30E94E2B17B018C017C
:1026900081E890E00E94B1119B01AC01C801B70133
:1026A0000E946CAEAB01BC0185EA93E022E00E947F
:1026B000852A86EC93E00E94E428E091A103F09142
:1026C000A203638574858585968520E030E040E728
:1026D00051E40E9440B1181614F410E001C011E05A
:1026E000E091A303F091A4036385748585859685A5
:1026F00020E030E040E751E40E9440B118160CF4AD
:1027000010E0E091A503F091A603638574858585AB
:10271000968520E030E040E751E40E9440B1181671
:1027200034F0112321F0AA24BB24650118C00E94B3
:102730005E3020915A2130915B2140915C21509173
:102740005D21621B730B840B950B28EE33E040E098
:1027500050E00E94FEB2C901DA015C016D01F999F5
:10276000FECF8DE790E092BD81BDF89A50B5F99902
:10277000FECF8EE790E092BD81BDF89A40B5F99901
:10278000FECF8FE790E092BD81BDF89A30B5F99900
:10279000FECF80E890E092BD81BDF89A20B5852FEC
:1027A000942FA32FB22FA80EB91ECA1EDB1EC6017E
:1027B000B50120E831E541E050E00E9420B3922EBF
:1027C000832E742E652E622F732F842F952F20E871
:1027D0003EEA4EEF5FEF0E94B8B27B018C01EA0C3B
:1027E000FB1C0C1D1D1D87EB93E0492D582D672DFB
:1027F000762D0E944129C801B70120E13EE040E06A
:1028000050E00E9420B3D22EC32EB42EA52E89EC08
:1028100093E0422F5C2D6B2D7A2D0E9441296D2D66
:102820007C2D8B2D9A2D20EF31EF4FEF5FEF0E9423
:10283000B8B2E60EF71E081F191FC801B7012CE336
:1028400030E040E050E00E9420B380ED93E0BA0118
:10285000A9010E94412988ED93E00E94A1291F91BE
:102860000F91FF90EF90DF90CF90BF90AF909F902F
:102870008F907F906F9008950F931F93CF93DF9366
:10288000E0916D04F0916E0442A953A964A975A961
:1028900089E693E022E00E94852A0E94B041AB01C4
:1028A000BC018CE693E022E00E94852AE0910D02B3
:1028B000EF3F29F4E0916D04F0916E04E081F0E0C7
:1028C000E45BF94F608180E793E070E00E94752936
:1028D00009E312E0C0E0D0E084E793E0BE010E948B
:1028E0007529D80117964D915D916D917C911A973C
:1028F0008AE793E022E00E94852A87E793E0BE0101
:102900000E947529D801EC91F0E0E45BF94F6081F9
:102910008AE793E070E00E94752921960F581F4FB7
:10292000C330D105C9F60E941D13DF91CF911F91CD
:102930000F910895809157048823A1F010925704B5
:102940000E94084580910C02815080930C028823DC
:1029500049F480910B02853010F40E94CD4485E04B
:1029600080930C02089504C00E9422540E949A147D
:102970008091AF118823C1F708952F923F924F9213
:102980005F926F927F928F929F92AF92BF92CF92FF
:10299000DF92EF92FF920F931F93DF93CF93CDB708
:1029A000DEB7C956D0400FB6F894DEBF0FBECDBF1C
:1029B0001C0180910004282F84FF19C0D1018C9143
:1029C00082FD09C081FF13C016968D919C911797C7
:1029D0008F36910561F00E945E3060933E067093E1
:1029E0003F0680934006909341060C942228F10103
:1029F000C080D180C2FC02C00C941A1E80859185D3
:102A00008C31910509F43AC28D31910598F48430E6
:102A1000910518F40297E0F52DC08431910509F471
:102A200026C28531910509F426C2049711F00C9451
:102A30000E1EDFC18032910509F4C2C381329105B7
:102A400040F48E31910509F497C34F9708F0A8C35D
:102A500037C28B35910511F40C94381D8C359105D6
:102A600011F40C943C1D8A35910511F00C940E1E46
:102A70000C94351DC1010E94BC8C882311F40C9468
:102A80000E1E81E061E041E00E9481760C940E1EF2
:102A90008091892090918A20A0918B20B0918C20E8
:102AA0008D8F9E8FAF8FB8A380918D2090918E20B7
:102AB000A0918F20B091902089A39AA3ABA3BCA32F
:102AC0008091912090919220A0919320B091942098
:102AD0008DA39EA3AFA3B8A7C1010E94BC8C88237D
:102AE00011F40C940E1EFE01759688E0DF011D9214
:102AF0008A95E9F7F101828180FD05C020E030E090
:102B000040E050E007C0D10197962D913D914D9145
:102B10005C919A978091C311882351F0CA01B90141
:102B200023E333E34BEC51E40E94E2B19B01AC019F
:102B30002D8B3E8B4F8B588FF101828181FD05C01B
:102B400020E030E040E050E007C0D1019B962D919D
:102B50003D914D915C919E978091C311882351F0D6
:102B6000CA01B90123E333E34BEC51E40E94E2B123
:102B70009B01AC01298F3A8F4B8F5C8FFE01B99678
:102B800080E1DF011D928A95E9F78091892090917B
:102B90008A20A0918B20B0918C2089A79AA7ABA7FF
:102BA000BCA780918D2090918E20A0918F20B09114
:102BB00090208DA79EA7AFA7B8AB80919120909150
:102BC0009220A0919320B091942089AB9AABABABAB
:102BD000BCAB6091A1207091A2208091A320909124
:102BE000A4200E94D4AF2091D0113091D1114091F6
:102BF000D2115091D3110E94E2B16DAB7EAB8FAB7D
:102C000098AFF101828182FFD1C0A7A4B0A8C1A86A
:102C1000D2A88091C311882351F0C601B50123E3E6
:102C200033E34BEC51E40E94E2B15B016C0169A516
:102C30007AA58BA59CA52D8D3E8D4F8D58A10E9408
:102C40006BAEA6966CAF7DAF8EAF9FAFA6976DA50E
:102C50007EA58FA598A929A13AA14BA15CA10E94AC
:102C60006BAE3B014C01C601B50120E030E040E80D
:102C700050E40E94E2B1A60195010E94E2B17B01FD
:102C80008C01A6966CAD7DAD8EAD9FADA6979B01D8
:102C9000AC010E94E2B19B01AC01C801B7010E94E6
:102CA0006BAE7B018C01C401B301A40193010E94AE
:102CB000E2B19B01AC01C801B7010E946BAE0E945A
:102CC0004FB27B018C01A6966CAD7DAD8EAD9FADF4
:102CD000A697A40193010E944DB19B01AC0117FB83
:102CE000109517F91095C801B7010E9439AF7B0103
:102CF0008C01A80197010E949CB2882329F08DEDD8
:102D000093E00E94A6298AC7D10118968D919C91C3
:102D10001997039721F417FB109517F91095C60121
:102D2000B50120E030E040E050E00E9432AF88235F
:102D300044F417FB109517F91095D7FAD094D7F8EB
:102D4000D094C401B301A80197010E94E2B19B0194
:102D5000AC01A6966CAD7DAD8EAD9FADA6970E94E1
:102D60006BAE20E030E040E05FE30E94E2B16D8BAB
:102D70007E8B8F8B988FA6966CAD7DAD8EAD9FAD03
:102D8000A697A80197010E94E2B19B01AC01C40182
:102D9000B3010E946CAE20E030E040E05FE30E94AF
:102DA000E2B1698F7A8F8B8F9C8F0CC06D897E8981
:102DB0008F89988D298D3A8D4B8D5C8D0E944DB1F8
:102DC0005B016C01E0E0D10118968D919C911997FF
:102DD000029709F4E1E0CE014D96BE01675D7F4F99
:102DE000AE014B5E5F4F96018501EE2E0E94105D95
:102DF00015C70E94B314F1018081918193FD04C035
:102E0000EE24FF24870107C0D1019396ED90FD9039
:102E10000D911C91969792FF0DC0F101678D70A1E5
:102E200081A192A128EE33E040E050E00E94B8B2C8
:102E30007B018C010E945E305B016C01AE0CBF1CFB
:102E4000C01ED11E04C00E9422540E949A140E94E7
:102E50005E30A6019501261B370B480B590BDA0192
:102E6000C90180509449A543B74768F3D7C681E0AC
:102E70008093C311D3C61092C311D0C6C601887304
:102E80009070892B21F441E021E061E015C0C6017A
:102E900043E0969587954A95E1F7282F2170C60162
:102EA00034E0969587953A95E1F7682F6170C5FCF7
:102EB00002C040E001C041E0822F0E948B8C59C1CA
:102EC0005090B12080E00E943E85809144219091F5
:102ED0004521A0914621B09147216E968CAF9DAFC0
:102EE000AEAFBFAF6E9780E393E00E94B1115B017C
:102EF0006C0184E393E00E94B1117B018C010E947C
:102F0000D71100D00F92ADB7BEB711966D937D93D8
:102F10008D939C931497C601B501A80197010F2EBC
:102F2000F0E8EF2EFFE4FF2EF3EC0F2FF7E41F2F56
:102F3000F02D570168010E942D890F900F900F907E
:102F40000F9081E060E00E946085A2966CAF7DAF3B
:102F50008EAF9FAFA29720E030E040E050E00E94AB
:102F600032AF87FD5BC688E393E00E94B1115B013D
:102F70006C018CE393E00E94B1117B018C010E94F3
:102F8000D71100D00F92EDB7FEB7618372838383B0
:102F90009483C601B501A80197010F2EF0E8EF2E2A
:102FA000FFE4FF2EF3EC0F2FF7E41F2FF02D570156
:102FB00068010E942D890F900F900F900F9080E074
:102FC00060E00E9460853B014C0120E030E040E081
:102FD00050E00E9432AF87FD21C680E493E00E945A
:102FE000B1115B016C0184E493E00E94B1117B019B
:102FF0008C010E94D71100D00F92ADB7BEB71196C9
:103000006D937D938D939C931497C601B501A80190
:1030100097010F2EF0E8EF2EFFE4FF2EF3EC0F2FB9
:10302000F7E41F2FF02D570168010E942D890F90A2
:103030000F900F900F9080E061E00E9460857B010F
:103040008C0120E030E040E050E00E9432AF87FD8C
:10305000E5C5A2966CAD7DAD8EAD9FADA297A401E6
:1030600093010E946CAEA80197010E946CAE2BEAFE
:103070003AEA4AEA5EE30E94E2B17B018C018EE506
:1030800099E0B801A70122E00E949A2AF10180810B
:10309000918192FF41C0878D90A1A1A1B2A100971B
:1030A000A105B105C9F1C801B7012091BC03309158
:1030B000BD034091BE035091BF030E94E2B10E9444
:1030C000A1AF60938120709382208093832090939E
:1030D000842086E799E00E94B3290E941A88A801FB
:1030E00097010E946CAE20E030E040EA51E40E947B
:1030F0006BAE9B01AC01CB01DA0180933C21909334
:103100003D21A0933E21B0933F2180E09AE0A901A8
:10311000BD0122E00E949A2A6E962CAD3DAD4EADC7
:103120005FAD6E9720934421309345214093462113
:1031300050934721852D90E025E0969587952A9517
:10314000E1F781700E943E850E946812D1018D9145
:103150009C91119792FF0DC05F968D919D910D905E
:10316000BC91A02D0297A105B10519F480E00E9441
:1031700036340E942E8052C50091B12010E085E0C7
:10318000169507958A95E1F7017080E00E943E85CB
:1031900081E061E00E946085802F0E943E853EC5EF
:1031A00085E899E00E94E4284A9902C06CE401C0D5
:1031B00068E48AE196E00E946A5A0E941D132EC5B7
:1031C000D3FC04C06A961FAE6A9711C06A961FAE00
:1031D0006A97F10183A194A1A5A1B6A118161906B9
:1031E0001A061B0624F4F1E06A96FFAF6A97109264
:1031F000AD201092AE201092AF201092B02010920D
:10320000A9201092AA201092AB201092AC2010920C
:10321000A5201092A6201092A7201092A8206A96AE
:103220008FAD6A970E943E8581E061E041E00E9497
:103230008B8C80E00E943E8560913C2170913D2105
:1032400080913E2190913F2120E030E040E251E426
:103250000E946BAE7B018C0188E293E00E94B11169
:103260009B01AC01C801B7010E946BAE69966CAFBF
:103270007DAF8EAF9FAF699700D000D0CDB6DEB6E0
:103280000894C11CD11C6091B4037091B503809166
:10329000B6039091B703905869962CAD3DAD4EADF5
:1032A0005FAD69970E94E2B10E94A1AF7B018C01E2
:1032B0008091D4039091D503A091D603B091D70308
:1032C000F60180839183A283B38381E08483158296
:1032D00060E070E080E090E020E030E040E050E02E
:1032E000AA24BB2465010E94577F2091442130917C
:1032F0004521409146215091472129962CAF3DAF61
:103300004EAF5FAF29974DB75EB74A5F5F4F0FB6BD
:10331000F8945EBF0FBE4DBF80E393E00E94B111F1
:103320005B016C0184E393E00E94B1117B018C018D
:103330000E94D71100D00F92ADB7BEB711966D9312
:103340007D938D939C931497C601B501A8019701B5
:103350000F2EF0E8EF2EFFE4FF2EF3EC0F2FF7E433
:103360001F2FF02D570168010E942D890F900F909B
:103370000F900F9081E060E00E94608565966CAFD1
:103380007DAF8EAF9FAF659720E030E040E050E02A
:103390000E9432AF87FD42C488E393E00E94B111DE
:1033A0005B016C018CE393E00E94B1117B018C0105
:1033B0000E94D71100D00F92EDB7FEB761837283E0
:1033C00083839483C601B501A80197010F2EF0E80D
:1033D000EF2EFFE4FF2EF3EC0F2FF7E41F2FF02D5D
:1033E000570168010E942D890F900F900F900F9048
:1033F00080E060E00E94608561966CAF7DAF8EAF2B
:103400009FAF619720E030E040E050E00E9432AF93
:1034100087FD04C480E493E00E94B1115B016C015C
:1034200084E493E00E94B1117B018C010E94D711CA
:1034300000D00F92ADB7BEB711966D937D938D936B
:103440009C931497C601B501A80197010F2EF0E8CF
:10345000EF2EFFE4FF2EF3EC0F2FF7E41F2FF02DDC
:10346000570168010E942D890F900F900F900F90C7
:1034700080E061E00E9460852D966CAF7DAF8EAFDD
:103480009FAF2D9720E030E040E050E00E9432AF47
:1034900087FDC4C365966CAD7DAD8EAD9FAD659760
:1034A00061962CAD3DAD4EAD5FAD61972D96ECAC08
:1034B000FDAC0EAD1FAD2D970E94A3826091F4204C
:1034C0007091F5208091F6209091F7200E94D4AF62
:1034D0007B018C016091F8207091F9208091FA2095
:1034E0009091FB200E94D4AF9B01AC01B5E04B2E24
:1034F000512C4C0E5D1EC801B7010F2EF0E0EF2ECF
:10350000F0E0FF2EF0E00F2FF0E01F2FF02D3E0136
:103510000894611C711C63015201A9E08A2E912C50
:103520008C0E9D1E0E94BB816091FC207091FD203D
:103530008091FE209091FF200E94D4AF7B018C01EE
:1035400060910021709101218091022190910321CD
:103550000E94D4AF9B01AC01C801B7010F2EF0E06F
:10356000EF2EF0E0FF2EF0E00F2FF0E01F2FF02DF8
:10357000FDE08F2E912C8C0E9D1E0E94BB816091D0
:1035800004217091052180910621909107210E94CC
:10359000D4AF7B018C016091082170910921809149
:1035A0000A2190910B210E94D4AF9B01AC01C8016C
:1035B000B7010F2EF0E0EF2EF0E0FF2EF0E00F2F1E
:1035C000F0E01F2FF02DE1E18E2E912C8C0E9D1E30
:1035D0000E94BB8149855A856B857C858AEA95E086
:1035E00022E00E949A2A4D855E856F85788983EB5B
:1035F00095E022E00E949A2A49895A896B897C8940
:103600008CEB95E022E00E949A2A6A96BFAD6A97F9
:10361000BB2309F44EC0E984FA840B851C858DE731
:1036200093E00E94A211AA2797FDA095BA2FBC0192
:10363000CD010E94D4AF9B01AC01C801B7010E942B
:103640006CAE69877A878B879C87ED84FE840F85B3
:1036500018898FE793E00E94A211AA2797FDA095F1
:10366000BA2FBC01CD010E94D4AF9B01AC01C801AF
:10367000B7010E946CAE6D877E878F87988BE98833
:10368000FA880B891C8981E893E00E94A211AA277D
:1036900097FDA095BA2FBC01CD010E94D4AF9B012C
:1036A000AC01C801B7010E946CAE698B7A8B8B8B21
:1036B0009C8BA984BA84CB84DC84ED84FE840F8542
:1036C000188999888A887B886C88B701C801292D58
:1036D000382D472D562D0E9432AF87FD04C0E92CAE
:1036E000F82C072D162DB501C6019701A8010E94DF
:1036F00032AF87FD02C057016801C501D601898339
:103700009A83AB83BC8399848A847B846C84DD84B4
:10371000CE84BF84A888E988FA880B891C896D2D1E
:103720007C2D8B2D9A2D9701A8010E9432AF87FD29
:1037300004C0ED2CFC2C0B2D1A2D692D782D872D16
:10374000962D9701A8010E9432AF87FD04C0E92C95
:10375000F82C072D162DC701D8018D839E83AF83CA
:10376000B88769857A858B859C8529813A814B81CB
:103770005C810E946BAE20E030E040E05FE30E949D
:103780006CAE0E940FB00E94A1AF9B01AC018DE70F
:1037900093E0B9010E948A110E942134282FF999DF
:1037A000FECF88E690E092BD81BDF89A80B52817DB
:1037B00069F0F999FECF1FBA88E690E092BD81BD0D
:1037C00020BD0FB6F894FA9AF99A0FBE6D857E85E2
:1037D0008F85988929813A814B815C810E946BAEEB
:1037E00020E030E040E05FE30E946CAE0E940FB04A
:1037F0000E94A1AF9B01AC018FE793E0B9010E9449
:103800008A110E942134282FF999FECF88E690E092
:1038100092BD81BDF89A80B5281769F0F999FECF5D
:103820001FBA88E690E092BD81BD20BD0FB6F89426
:10383000FA9AF99A0FBE69897A898B899C892981BC
:103840003A814B815C810E946BAE20E030E040E029
:103850005FE30E946CAE0E940FB00E94A1AF9B017B
:10386000AC0181E893E0B9010E948A110E942134E1
:10387000282FF999FECF88E690E092BD81BDF89A95
:1038800080B5281769F0F999FECF1FBA88E690E055
:1038900092BD81BD20BD0FB6F894FA9AF99A0FBE79
:1038A00069817A818B819C812091CC113091CD11DD
:1038B0004091CE115091CF110E94E2B19B01AC0119
:1038C00069966CAD7DAD8EAD9FAD69970E946CAE73
:1038D0007B018C0165966CAD7DAD8EAD9FAD65971E
:1038E00061962CAD3DAD4EAD5FAD61970E946CAE63
:1038F0002D962CAD3DAD4EAD5FAD2D970E946CAEBB
:1039000020E030E040E450E40E9439AF9B01AC017C
:10391000C801B7010E946CAE60933C2170933D21B9
:1039200080933E2190933F2181E00E943E850E943A
:103930006B9281E061E041E00E948B8C40903C21E1
:1039400050903D2160903E2170903F2188E293E0AD
:103950000E94B11169AF7AAF8BAF9CAF88E293E060
:103960000E94B1117B018C010E94D7115B016C0197
:1039700000D00F928DB69EB60894811C911CC80190
:10398000B70120E030E040E251E40E946CAE7B01E0
:103990008C01F401A082B182C282D38260E070E027
:1039A00080E090E09B01AC010F2EF0E8AF2EFFE429
:1039B000BF2EF3ECCF2EF7E4DF2EF02D0E942D89E1
:1039C0000F900F900F900F9081E061E00E94608552
:1039D0007B018C0120E030E040E050E00E9432AFFB
:1039E00087FD1CC1C301B20120E030E040E251E498
:1039F0000E946BAE29AD3AAD4BAD5CAD0E946BAE93
:103A0000A80197010E946CAE60933C2170933D2108
:103A100080933E2190933F21D1018D919C911197EC
:103A200092FF11C05F968D919D910D90BC91A02D3C
:103A30000097A105B10539F00297A105B10519F468
:103A400080E00E94363481E00E943E8529962CADAC
:103A50003DAD4EAD5FAD2997209344213093452174
:103A60004093462150934721D9C010927720D6C069
:103A700081E080937720D2C0E0908920F0908A2066
:103A800000918B2010918C2080908D2090908E2022
:103A9000A0908F20B0909020409091205090922044
:103AA0006090932070909420C3FC0DC0A7961FAE29
:103AB000A797A8961FAEA897A9961FAEA997AA96F2
:103AC0001FAEAA9727C0D1011A962D913D914D9115
:103AD0005C911D978091C311882351F0CA01B901EF
:103AE00023E333E34BEC51E40E94E2B19B01AC01D0
:103AF000CA01B901A80197010E946BAEA7966FAFEA
:103B0000A797A8967FAFA897A9968FAFA997AA96CF
:103B10009FAFAA97C4FC05C088249924AA24BB247B
:103B20001BC0F10126853785408951898091C311D9
:103B3000882351F0CA01B90123E333E34BEC51E48C
:103B40000E94E2B19B01AC01CA01B901A501940137
:103B50000E946BAE4B015C01C5FC05C0EE24FF2446
:103B600000E010E01DC0D10152962D913D914D9184
:103B70005C9155978091C311882351F0CA01B90116
:103B800023E333E34BEC51E40E94E2B19B01AC012F
:103B9000CA01B901A30192010E946BAE7B018C01A5
:103BA000A7962FADA797A8963FADA897A9964FAD1A
:103BB000A997AA965FADAA97B901CA019401A50178
:103BC0000E94AD8FF101808186FF28C02689378948
:103BD000408D518D8091C311882351F0CA01B901E4
:103BE00023E333E34BEC51E40E94E2B19B01AC01CF
:103BF000CA01B9012091C0033091C1034091C203B1
:103C00005091C3030E94E2B10E94A1AF609385204E
:103C10007093862080938720909388200E945E3046
:103C200060933E0670933F06809340069093410652
:103C30000C942228C1FC02C00C940F28D1011696C6
:103C40008D919C9117978C38910509F449C28D3854
:103C5000910508F089C08135910509F422C58235A6
:103C6000910508F03CC08A31910509F448C18B31B7
:103C70009105C0F48631910509F41FC18731910582
:103C800048F48431910509F40AC1459711F00C9468
:103C900022280BC18831910509F422C1499708F007
:103CA0002AC111C18E31910509F460C18F3191058E
:103CB00048F48B31910509F446C14C9711F00C94EE
:103CC000222847C18A32910509F46CC180359105DB
:103CD00009F4D8C4809711F00C94222856C1893673
:103CE000910509F41EC28A369105F8F484359105D0
:103CF00009F4E3C48535910550F48235910509F442
:103D0000D5C48335910511F00C942228D2C48C358A
:103D1000910509F40FC58836910509F496C18535DA
:103D2000910511F00C942228E4C48237910509F41E
:103D30006AC58337910550F48D36910509F4F4C1B5
:103D40008F36910511F00C9422283DC587379105D7
:103D500009F45CC58837910509F486C58337910558
:103D600011F00C94222848C58B3F910511F40C9456
:103D700026278C3F910508F040C08E3C910509F440
:103D800084C68F3C9105D0F48A3C910509F4C7C5DF
:103D90008B3C910550F48E3B910509F4A0C3893CFE
:103DA000910511F00C9422286CC58C3C910509F406
:103DB00017C68D3C910508F065C6FFC58D3D910580
:103DC00009F4A9C68E3D910550F48F3C910509F484
:103DD00060C68C3D910511F00C9422288CC6883E5B
:103DE000910509F4BDC6893E910509F4DFC68F3DF2
:103DF000910511F00C942228A0C6B1E080399B07F0
:103E000009F4F6C6E1E081399E0728F5F1E0803437
:103E10009F0709F4CDC721E08134920758F431E0BF
:103E20008C32930709F4DEC38F52914011F00C9449
:103E30002228FAC351E08234950711F40C940E271E
:103E4000A1E082349A0708F4CBC78E55914011F057
:103E50000C942228A8C7E1E0843F9E0709F48AC792
:103E6000F1E0853F9F0758F421E08139920709F47A
:103E7000C2C68259914011F00C942228EDC641E04F
:103E8000863F940709F48CC751E0863F950708F4F4
:103E900079C7875F914011F00C942228F3C58FE613
:103EA00091E20E94E7990C9422281092FB218FE660
:103EB00091E20E94B99B0C9422281092FB2110924F
:103EC000FC210C942228D7FC02C00C942228F1017A
:103ED00063A974A98FE691E20E9496980C94222817
:103EE0008091FC21882311F40C94222881E0809396
:103EF000FB210C9422281092FB210C942228D2FC46
:103F000002C00C942228D1015F964C915F97909645
:103F10005C91909791966C91919792967C918091FB
:103F2000FC21882311F40C9422284093CC21509337
:103F3000CD216093CE217093CF218DEA91E20E9432
:103F40001BA30C9422288FE691E20E9471980C9496
:103F50002228D7FC02C00C942228F10163A974A97D
:103F60008FE691E20E9439980C942228D7FC02C077
:103F70000C942228D101D3966D917C91D4978FE631
:103F800091E20E94ED970C942228D7FC02C00C9479
:103F90002228F10163A974A98FE691E20E94C497D7
:103FA0000C942228D2FC02C00C942228D3FC02C01C
:103FB0000C942228F101878D90A1A1A1B2A1B7FF95
:103FC00002C00C9422288F3F9105A105B10519F07C
:103FD00014F00C94222803A114A120E030E0F90190
:103FE000EE0FFF1FE15DFE4FE4918E2F90E08017F2
:103FF000910711F40C9422282F5F3F4F2434310590
:1040000071F717FF02C00C942228802F61E00E94F4
:104010000432802FD1015F966C910E94B732F1017A
:10402000678D70A1802F0E94243188E094E0B80150
:104030000E947529D1015F966D917C91909784E1E2
:1040400094E00E941A290C9422280E94804488231C
:1040500011F00C9422280E945E3060933E0670930B
:104060003F0680934006909341068091000483FDB3
:10407000E9C7F1018081918193FD0AC092FF0AC0D6
:10408000878D90A1A1A1B2A10097A105B10511F45E
:104090000E94B314D1018D919C91119792FFD2C7C8
:1040A00091FF0DC05F966D917D918D919C9192973E
:1040B0000E94D4AFF101468D0E94694BC3C7D10164
:1040C0005F966D917D918D919C9192970E94D4AF56
:1040D000E0916D04F0916E0440810E94694BB2C77B
:1040E0000E948044882309F0ADC70E945E3060932F
:1040F0003E0670933F068093400690934106809160
:10410000000483FD9FC7F1018081918192FF9AC7CE
:10411000678D70A181A192A10E94D4AF0E945448E2
:1041200091C70E943C148EC70E948044882309F0E6
:1041300089C70E945E3060933E0670933F0680936D
:104140004006909341068091000483FD7BC70E9446
:10415000B31480906D0490906E04D1012D913C9128
:10416000119731FF0CC05E969C91933040F481E72B
:10417000989F40011124EEE0F2E08E0E9F1E32FF68
:104180000DC0D1015F966D917D918D919C9192971B
:104190000E94D4AFF40140810E94694BD401D296B1
:1041A0006D917D918D919C91D597D6962D913D9154
:1041B0004D915C91D9970E946BAE7B018C0120E000
:1041C00030E040E050E00E9440B118165CF4C801B5
:1041D000B70120E030E040E050E40E9432AF882395
:1041E00064F430C7C801B70120E030E040E050EC93
:1041F0000E9440B118160CF425C73324F40120A9FD
:1042000031A986A597A58217930714F43324339414
:104210000E945E3025966CAF7DAF8EAF9FAF259725
:1042200044245524320110E00E945E3021966CAF88
:104230007DAF8EAF9FAF2197DC01CB0125962CADD2
:104240003DAD4EAD5FAD2597821B930BA40BB50B17
:10425000895E9340A040B04070F00E943C142196CB
:104260008CAD9DADAEADBFAD219725968CAF9DAF0A
:10427000AEAFBFAF25970E949A1480916D049091C4
:104280006E048816990609F066C0D4019396ED90E5
:10429000FC9094971E141F040CF05DC0112309F0CC
:1042A0005AC0332009F457C091966D917C91929732
:1042B000882777FD8095982F0E94D4AF9B01AC0191
:1042C000F40162A973A984A995A90E9440B11816A6
:1042D0000CF041C000D000D00DB71EB70F5F1F4FCC
:1042E000662777276E197F09882777FD8095982F95
:1042F0000E94D4AF2091C0033091C1034091C2030A
:104300005091C3030E94E2B10E94A1AF5B016C0116
:10431000F40187859089A189B289F801808391830E
:10432000A283B3831482158260E070E080E090E0A5
:1043300020E030E040E050E0EE24FF2487010E94BE
:10434000577F11E02DB73EB72A5F3F4F0FB6F89465
:104350003EBF0FBE2DBF411451046104710409F02A
:1043600055C03320C9F0D401D6966D917D918D91C1
:104370009C91D99720E030E040E85FE30E946BAE6B
:104380009B01AC01F40162A973A984A995A90E94BB
:1043900040B187FF1AC048CFD401D6966D917D9168
:1043A0008D919C91D99720E030E040E85FE30E9436
:1043B0006CAE9B01AC01F40162A973A984A995A913
:1043C0000E9432AF18160CF42FCFD4015F966D9176
:1043D0007C919097882777FD8095982F28EE33E081
:1043E00040E050E00E94B8B22B013C0121962CAD78
:1043F0003DAD4EAD5FAD2197420E531E641E751E3E
:10440000411451046104710409F40ECFD301C201B7
:1044100021962CAD3DAD4EAD5FAD2197821B930B28
:10442000A40BB50B80509449A543B74708F4FCCEC4
:10443000112309F449C080916D0490916E0488168F
:10444000990609F041C000D000D00DB71EB70F5F2C
:104450001F4FD40193966D917C919497882777FD97
:104460008095982F0E94D4AF2091C0033091C10352
:104470004091C2035091C3030E94E2B10E94A1AFD8
:104480005B016C01F40187859089A189B289F801EB
:1044900080839183A283B3831482158260E070E0ED
:1044A00080E090E020E030E040E050E0EE24FF24A7
:1044B00087010E94577F2DB73EB72A5F3F4F0FB647
:1044C000F8943EBF0FBE2DBF0E945E3060933E0643
:1044D00070933F068093400690934106B3C523FD39
:1044E000B1C50E94B314D1018D919C91119792FF97
:1044F0000AC05F966D917D918D919C9192970E94DB
:10450000D4AF0E9454486091680370916903809110
:104510006A0390916B0320916C0330916D0340917D
:104520006E0350916F030E946BAE7B018C0120E003
:1045300030E040E050E00E9440B118165CF4C80141
:10454000B70120E030E040E450E40E9432AF88231D
:1045500064F478C5C801B70120E030E040E450ECD5
:104560000E9440B118160CF46DC50E945E307B01AC
:104570008C0113C00E945E306E197F09800B910B75
:10458000695E73408040904030F00E943C140E946D
:104590005E307B018C010E949A14609168037091D7
:1045A000690380916A0390916B0320E030E040E062
:1045B0005FE30E946CAE20916C0330916D034091DB
:1045C0006E0350916F030E9432AF87FDD3CF0E94DC
:1045D0005E3060933E0670933F0680934006909352
:1045E000410630C5D2FC03C061E070E003C0F101B8
:1045F000678D70A1D3FC03C008EE13E005C0D101A4
:1046000093960D911C91949781E220E030E040E078
:1046100050E00E94942BB80180E090E00E9492301C
:1046200081E20E941D2B0EC5D2FC03C026E930E0BA
:1046300003C0F101278D30A1D3FC03C0EE24FF2479
:104640000CC0D1019396ED90FC909497B4E0EB16DA
:10465000F1041CF054E0E52EF12CF701EE0FFF1FE2
:10466000EF55FC4F00811181B901882777FD8095B6
:10467000982F0E94D4AFAB01BC01C8012E2D0E941F
:10468000A748E0C40E94B3140E945E3060933E06C7
:1046900070933F068093400690934106269A2E9889
:1046A000D1C40E94B314269A2E9ACCC410927820BA
:1046B000C9C481E080937820C5C4D2FE14C0F10142
:1046C000678D70A181A192A128EE33E040E050E017
:1046D0000E94B8B26093AA037093AB038093AC03BB
:1046E0009093AD03AFC40E94B31481E00E94C891BF
:1046F000A9C4D2FE16C0D1015F966D917D918D91B6
:104700009C91929728EE33E040E050E00E94B8B2CE
:104710006093420670934306809344069093450647
:1047200091C41092420610924306109244061092D1
:10473000450688C4C3FE0DC0F10182859385A4851A
:10474000B5858093B4039093B503A093B603B0935B
:10475000B703D1018C9184FF0EC01E968D919D915F
:104760000D90BC91A02D8093B8039093B903A093B2
:10477000BA03B093BB03F101808185FF0CC082892D
:104780009389A489B5898093BC039093BD03A093BA
:10479000BE03B093BF030E946B92D1018C9186FF40
:1047A00051C4E0916D04F0916E0456962D913D91A7
:1047B0004D915C9159972187328743875487808137
:1047C0000E946D4C3FC4D2FE04C0F101878D8093DE
:1047D00000048091000483FF35C460E070E080E055
:1047E00090E040E00E94694B60E070E080E090E083
:1047F00041E00E94694B26C485E891E00E94A1290E
:104800000E942C131FC40E9468121CC40E94B3147F
:1048100086E294E00E94E428659903C08CE194E06C
:1048200002C089E194E00E94E42884E394E00E94BD
:10483000E4288091030181FD03C08CE194E002C073
:1048400089E194E00E94E42882E494E00E94E42854
:104850004B9903C08CE194E002C089E194E00E948E
:10486000E4280E941D13EEC3D2FEECC3D3FEEAC3BC
:10487000D1015F968C915F9793966C910E9449AE9F
:10488000E1C3C3FE0FC0F101628573858485958500
:104890000E94A1AF6093E0037093E1038093E20371
:1048A0009093E303D1018C9184FF10C01E966D910B
:1048B0007D918D919C9151970E94A1AF6093E403EB
:1048C0007093E5038093E6039093E703F101808101
:1048D00085FF0EC062897389848995890E94A1AF82
:1048E0006093E8037093E9038093EA039093EB03EA
:1048F000D1018C9186FF10C056966D917D918D915E
:104900009C9159970E94A1AF6093EC037093ED03C3
:104910008093EE039093EF030E946B9293C3C3FEC8
:104920000FC0F10162857385848595850E94A1AFD2
:104930006093F0037093F1038093F2039093F30379
:10494000D1018C9184FF10C01E966D917D918D9147
:104950009C9151970E94A1AF6093F4037093F5036B
:104960008093F6039093F703F101808185FF0EC0D9
:1049700062897389848995890E94A1AF6093F80345
:104980007093F9038093FA039093FB03D1018C9108
:1049900086FF10C056966D917D918D919C9159978F
:1049A0000E94A1AF6093FC037093FD038093FE030C
:1049B0009093FF030E946B9245C3D2FE43C3F10163
:1049C000278D30A141A152A1233031054105510568
:1049D0001CF420930B0236C383E080930B0232C396
:1049E00080916D0490916E04D2FC03C0FC01BB96D3
:1049F0001CC0D1015F962D913D914D915C91929794
:104A000057FD20C323303105410551051CF0E1E677
:104A1000F3E00BC081E790E0289FF001299FF00DA3
:104A2000389FF00D1124E75CFD4FC3FE0BC0D10190
:104A30001A962D913D914D915C911D97228F338F48
:104A4000448F558FD1018C9184FF0AC01E962D9101
:104A50003D914D915C915197268F378F40A351A383
:104A6000D1018C9185FF0AC052962D913D914D91B7
:104A70005C91559722A333A344A355A3CF010E9471
:104A80006441E0C20E943038DDC2C1010E94F53DA0
:104A9000D9C2C3FE0DC0F10182859385A485B58579
:104AA00080934C2190934D21A0934E21B0934F21A0
:104AB000D1018C9186FF11C0E0916D04F0916E04DC
:104AC00056962D913D914D915C915997278B308F42
:104AD000418F528F80810E946D4C40914C215091AA
:104AE0004D2160914E2170914F2189E494E022E0A4
:104AF0000E949A2AA7C2D2FC05C024E630E040E01A
:104B000050E005C0F101278D30A141A152A1C9019A
:104B10000E94061297C2D2FC05C024E630E040E0B5
:104B200050E007C0D1015F962D913D914D915C9170
:104B30009297C9010E94F11185C2D2FE83C28FB73C
:104B4000F8942091C1113091C211F101478D50A10B
:104B5000240F351F3093C2112093C1118FBF72C231
:104B6000609146067091470687E594E00E9475299A
:104B7000409148065091490660914A0670914B0653
:104B800088E794E022E00E949A2A10924706109249
:104B9000460680E090E0A0E0B0E080934806909365
:104BA0004906A0934A06B0934B064CC2C4FE0EC001
:104BB00020916D0430916E04F10186859785A0895E
:104BC000B189F90185A396A3A7A3B0A7E0916D04CD
:104BD000F0916E0445A156A167A170A581E894E00B
:104BE00022E00E94852A0E941D130E94F67F2AC29D
:104BF0000E94B31427C28091792090917A20A091CD
:104C00007B20B0917C208093632190936421A093BA
:104C10006521B093662180917D2090917E20A091A6
:104C20007F20B09180208093672190936821A0938A
:104C30006921B0936A218091812090918220A09176
:104C40008320B091842080936B2190936C21A0935A
:104C50006D21B0936E21F6C1C3FE0CC0C4FE0AC024
:104C6000C60125E0969587952A95E1F7682F60950E
:104C7000617001C061E08090632190906421A090F8
:104C80006521B09066214090792050907A20609004
:104C90007B2070907C20662339F4C4FC05C020E0A2
:104CA00030E040E050E016C020916721309168214B
:104CB0004091692150916A2180917D2090917E20C0
:104CC000A0917F20B0918020281B390B4A0B5B0BF1
:104CD000662331F4C5FC04C0EE24FF24870114C010
:104CE000E0906B21F0906C2100916D2110916E216C
:104CF0008091812090918220A0918320B091842086
:104D0000E81AF90A0A0B1B0BD0FE08C0D1015A960B
:104D10006D917D918D919C915D9708C0609144212A
:104D200070914521809146219091472100D000D07B
:104D3000EDB7FEB7319684189508A608B708ADB749
:104D4000BEB711966D937D938D939C9314971482A7
:104D500081E08583C501B401AA24BB2465010E94BA
:104D6000577FEDB7FEB736960FB6F894FEBF0FBE6D
:104D7000EDBF68C180E00E9436348FEB9AE00E945C
:104D8000C02960C10E948A3AE0916D04F0916E04DE
:104D900080810E946D4C8FED9AE00E94C02952C123
:104DA0000E945B3E4FC183E791E00E94A1294AC166
:104DB00081E00E943E85D1018D919C91119792FFD7
:104DC00041C15F968D919D910D90BC91A02D009752
:104DD000A105B10509F436C180E00E94363432C124
:104DE00080E00E943E85F1018081918192FF2AC17D
:104DF000278D30A141A152A1211531054105510551
:104E000009F420C1233031054105510519F480E032
:104E10000E94E78480E00E94363414C180E00E9442
:104E2000E784D1018D919C91119792FF0BC15F9600
:104E30008D919D910D90BC91A02D0097A105B1057C
:104E400009F400C180E00E943634FCC0D2FEFAC0F2
:104E5000F101878D90A1A1A1B2A10097A105B10593
:104E600069F41092E4201092E5201092E62010924E
:104E7000E72089E994E00E94A129E4C00197A105F7
:104E8000B10541F54091E4205091E5206091E62084
:104E90007091E7208CEA94E00E9407296091E42059
:104EA0007091E5208091E6209091E7200E94D4AF98
:104EB0002091CC113091CD114091CE115091CF1154
:104EC0000E94E2B1AB01BC0184EC94E022E00E94BC
:104ED0009A2AB8C082E090E0A0E0B0E0F101878FAC
:104EE00090A3A1A3B2A38091792090917A20A09160
:104EF0007B20B0917C200097A105B10509F08AC004
:104F000080917D2090917E20A0917F20B091802083
:104F10000097A105B10509F07DC02091E4203091F2
:104F2000E5204091E6205091E72057FF0FC08827E9
:104F30009927DC01821B930BA40BB50B8093E42013
:104F40009093E520A093E620B093E72080E090E0E6
:104F5000A0E0B0E08093402190934121A0934221B2
:104F6000B09343216091E4207091E5208091E62088
:104F70009091E7200E94D4AF9B01AC016091CC11CD
:104F80007091CD118091CE119091CF110E94E2B11C
:104F900060933C2170933D2180933E2190933F216B
:104FA0008091E4209091E520A091E620B091E72047
:104FB00080931C2190931D21A0931E21B0931F214B
:104FC0001092792010927A2010927B2010927C20EF
:104FD00010927D2010927E2010927F2010928020CF
:104FE00010928120109282201092832010928420AF
:104FF00089E790E264EF71E10E940B6084ED94E038
:105000000E94A12980E00E94363484E695E00E9447
:10501000A12918C08CEF94E00E94A62913C0D1FEEC
:1050200008C00E94B314D1015E968C910E946D4C11
:1050300009C022FF07C08BE393E00E94E428C1016E
:105040000E941B4FC759DF4F0FB6F894DEBF0FBE4B
:10505000CDBFCF91DF911F910F91FF90EF90DF9027
:10506000CF90BF90AF909F908F907F906F905F9008
:105070004F903F902F900895CF93DF930E9422543A
:105080000E940A4FEC010097D1F08091FD21882306
:1050900081F0888181FF04C08E819F814D9791F0BE
:1050A0008FE691E2BE010E940B9ACE010E94295325
:1050B00003C0CE010E94BD14CE010E943A530E944B
:1050C0000492DCCF8FE691E20E941B98EECFCF9343
:1050D000DF93EC0105C021968AE196E00E946A5AAE
:1050E00068816623C1F7DF91CF910895AF92BF9297
:1050F000CF92DF92EF92FF920F931F93DF93CF93A4
:10510000CDB7DEB72B970FB6F894DEBF0FBECDBF7D
:10511000C62ED92E1B869BE0A92EB12CAC0EBD1E2F
:105120006C2D9D2D2AE030E040E050E00E94FEB260
:10513000D52E7901042F152F80E3C80EC801B701C1
:105140002AE030E040E050E00E94B8B2C61AF50113
:10515000C2925F01CE2C7F2D802FE114F104010556
:105160001105F1F6CF010E9467282B960FB6F8942F
:10517000DEBF0FBECDBFCF91DF911F910F91FF908A
:10518000EF90DF90CF90BF90AF900895EF92FF9295
:105190000F931F937B018C0197FF0DC08AE196E06E
:1051A0006DE20E946A5A10950095F094E094E11C1B
:1051B000F11C011D111DC801B7010E9476281F9125
:1051C0000F91FF90EF900895CF93DF93EC0104C00F
:1051D0008AE196E00E946A5AFE0164912196662354
:1051E000B9F7DF91CF910895EF92FF920F931F933C
:1051F0007A018B010E94E428C801B7010E94762839
:105200000E941D131F910F91FF90EF900895EF9250
:10521000FF920F931F937A018B010E94E428C8012B
:10522000B7010E94C6280E941D131F910F91FF9085
:10523000EF900895EF92FF920F931F937B010E94CE
:10524000E4280027F7FC0095102FC801B7010E9441
:10525000C6280E941D131F910F91FF90EF90089593
:10526000EF92FF920F931F937A018B010E94E42823
:10527000C801B7010E9476281F910F91FF90EF900F
:105280000895EF92FF920F931F937A018B010E9472
:10529000E428C801B7010E94C6281F910F91FF9012
:1052A000EF900895FF920F931F93CF93DF93162FE4
:1052B000072FF42E0E94E428212F302FC901EC0182
:1052C00010E009C049915991699179918BEE93E071
:1052D0000E9441291F5F1F15A8F30E941D13DF9133
:1052E000CF911F910F91FF900895EF92FF920F932E
:1052F0001F937B010E94E4280027F7FC0095102FE4
:10530000C801B7010E94C6281F910F91FF90EF902E
:1053100008950F931F938B010E94E428C8010E94F7
:1053200067281F910F9108950F931F938B010E947F
:10533000E428C8010E9467280E941D131F910F9145
:1053400008950E94E4280E941D1308950F931F934F
:105350008C0183E492E00E94E428C8010E94A12904
:105360001F910F9108950F931F938C018AE492E08F
:105370000E94E428C8010E94A1291F910F9108955D
:105380000F931F938C018AE492E00E94E428C801E5
:105390000E94E4281F910F9108950F931F938C0191
:1053A00080E592E00E94E428C8010E94A1291F9193
:1053B0000F9108959F92AF92BF92CF92DF92EF929A
:1053C000FF920F931F93CF93DF937B018C01942E59
:1053D000A80197010E949CB2882319F08BE392E008
:1053E00020C0C0E0D0E057016801E894D7F8C601BA
:1053F000B5012FEF3FEF4FE75FE70E949CB2882394
:1054000051F4C601B5012FEF3FEF4FE75FE70E9470
:1054100032AF181614F0C1E0D0E0219729F08FE3E5
:1054200092E00E94E42865C0C801B70120E030E0A6
:1054300040E050E00E9432AF88234CF48AE196E0CD
:105440006DE20E946A5A17FB109517F9109520E03B
:1054500030E040E05FE3DD240BC0CA01B90120E089
:1054600030E040E251E40E9439AF9B01AC01D3949B
:10547000D91498F3C801B7010E946CAE5B016C01AE
:105480000E94A6AF7B018C010E947628992029F00A
:105490008AE196E06EE20E946A5AC801B7010E9452
:1054A000D2AF9B01AC01C601B5010E946BAE1FC01B
:1054B00020E030E040E251E40E94E2B17B018C0147
:1054C0000E94A1AF5B016C01CC24B7FCC094DC2C22
:1054D000C601B5010E94C628C601B5010E94D4AF1D
:1054E0009B01AC01C801B7010E946BAE9A94992050
:1054F000F9F6DF91CF911F910F91FF90EF90DF9020
:10550000CF90BF90AF909F900895DF92EF92FF925F
:105510000F931F937A018B01D22E0E94E428C801B9
:10552000B7014D2D0E94DA291F910F91FF90EF9046
:10553000DF900895DF92EF92FF920F931F937A010D
:105540008B01D22E0E94E428C801B7014D2D0E9484
:10555000DA290E941D131F910F91FF90EF90DF90A9
:105560000895CF93DF930E94C2300E945B97C0E002
:10557000D0E00E9458972097E1F30E940000F9CFF5
:10558000CF92DF92EF92FF920F931F93CF93DF930F
:105590007C016B018A01C0E0D0E00FC0D6016D91A3
:1055A0006D01D701ED91FC910190F081E02DC701D3
:1055B0001995C80FD91F015010400115110571F739
:1055C000CE01DF91CF911F910F91FF90EF90DF906F
:1055D000CF9008958230B9F0833028F4882351F0B9
:1055E000813051F50AC0843011F18430E8F0853003
:1055F00019F520C010926E00089580916F008D7F84
:1056000080936F000895809170008D7F809370006B
:1056100081E08093B0008091B100887F84608093A6
:10562000B1001092B3000895109271000895109285
:10563000720008951092730008951F93182F80919F
:105640000A02811711F09FEF06C0E0EAF1E19491A0
:105650008FEF80930A02892F0E94EA2A812F60E04F
:105660000E94B7321F9108951F920F920FB60F92AA
:105670000BB60F9211242F933F934F935F936F9329
:105680007F938F939F93AF93BF93EF93FF938091FB
:10569000200490912104A0912204B091230400974A
:1056A000A105B10551F1E0912404F0912504808118
:1056B0009091260489278083809120049091210471
:1056C000A0912204B0912304181619061A061B068D
:1056D000C4F48091200490912104A0912204B091FF
:1056E00023040197A109B109809320049093210418
:1056F000A0932204B093230404C080910A020E9464
:105700001D2BFF91EF91BF91AF919F918F917F9151
:105710006F915F914F913F912F910F900BBE0F9022
:105720000FBE0F901F9018952F923F925F926F922D
:105730007F928F929F92AF92BF92CF92DF92EF9221
:10574000FF920F931F93DF93CF9300D00F92CDB7AB
:10575000DEB7A82F1B0129833A834B835C8380919A
:105760000A028A1721F4E0EAF1E1549003C18F3F65
:1057700009F0BEC2A0930A02E0EAF1E154902FEFD3
:10578000521609F4B5C282E0581609F45BC08515BB
:105790003CF0552089F091E0591609F0EBC02CC07F
:1057A000B4E05B1609F49AC05B160CF471C0E5E036
:1057B0005E1609F0DFC0B8C014BC15BC84B58260A9
:1057C00084BD85B5816085BD2A2F30E0F901E151A6
:1057D000FE4EE491F0E0EE0FFF1FE554FE4E859182
:1057E000949190931704809316042B5C3D4EF9011D
:1057F000849180931804C0C01092800010928100A0
:105800008091810088608093810080918100816017
:10581000809381002A2F30E0F901E151FE4EE4919E
:10582000F0E0EE0FFF1FE554FE4E859194919093AA
:105830001E0480931D042B5C3D4EF90184918093DE
:105840001F049AC01092B0001092B1008091B00075
:1058500082608093B0008091B10081608093B1003C
:105860002A2F30E0F901E151FE4EE491F0E0EE0F15
:10587000FF1FE554FE4E85919491909325048093EB
:1058800024042B5C3D4EF90184918093260474C05E
:105890001092900010929100809191008860809306
:1058A0009100809191008160809391002A2F30E0D7
:1058B000F901E151FE4EE491F0E0EE0FFF1FE554D7
:1058C000FE4E8591949190932C0480932B042B5C35
:1058D0003D4EF901849180932D044EC01092A0009A
:1058E0001092A1008091A10088608093A100809116
:1058F000A10081608093A1002A2F30E0F901E151DD
:10590000FE4EE491F0E0EE0FFF1FE554FE4E859150
:10591000949190933304809332042B5C3D4EF901B3
:1059200084918093340428C01092200110922101A8
:105930008091210188608093210180912101816003
:10594000809321012A2F30E0F901E151FE4EE491CC
:10595000F0E0EE0FFF1FE554FE4E85919491909379
:105960003A04809339042B5C3D4EF9018491809375
:105970003B0402C057FCBCC18A2F61E00E94043284
:10598000552021F0F2E05F1609F0BEC031018824F5
:10599000992460E072E18AE790E0A40193010E94FB
:1059A00020B359016A01860175010894E108F108E4
:1059B000010911092FEFE216F1040105110509F0A3
:1059C00008F499C060E472E48FE090E0A4019301D0
:1059D0000E9420B379018A010894E108F1080109C5
:1059E000110982E05816C1F49FEFE916F104010590
:1059F000110509F008F484C060E970ED83E090E0DF
:105A0000A40193010E9420B379018A010894E1085E
:105A1000F1080109110983E0AFEFEA16F10401056D
:105A2000110509F008F468C068E478EE81E090E0C0
:105A3000A40193010E9420B379018A010894E1082E
:105A4000F10801091109552011F483E01DC0B2E0ED
:105A50005B1611F084E018C0EFEFEE16F1040105BB
:105A6000110509F008F442C164E274EF80E090E0AF
:105A7000A40193010E9420B379018A010894E108EE
:105A8000F1080109110985E0FFEFEF16F1040105A6
:105A9000110591F188F162E17AE780E090E0A401DC
:105AA00093010E9420B379018A010894E108F1086A
:105AB00001091109552011F086E001C084E02FEFA3
:105AC000E216F10401051105B9F0B0F0C601B50107
:105AD00020E034E040E050E00E9420B379018A01E8
